:1000000071C000008FC000008DC000008BC00000D8
:1000100089C0000087C0000085C0000083C00000C8
:1000200081C000007FC000007DC000007BC00000D8
:1000300079C0000077C0000075C0000073C00000E8
:1000400071C0000072C000006DC000006BC00000F5
:1000500069C0000067C0000065C0000063C0000008
:1000600061C00000EDC5000014C600005BC00000C8
:1000700059C0000057C0000055C0000053C0000028
:10008000A2C000004FC000004DC000004BC00000E7
:100090008EC60000B5C6000045C0000043C0000089
:1000A00041C000003FC000003DC000003BC0000058
:1000B00039C0000037C0000035C0000033C0000068
:1000C00031C000002FC000002DC00000E8C60000B5
:1000D0000FC7000027C0000099C70000C0C700007C
:1000E00021C0000011241FBECFEFD1E2DEBFCDBF83
:1000F00000E00CBF13E0A0E0B2E0EAE2F7E100E0CC
:100100000BBF02C007900D92A030B107D9F724E0D1
:10011000A0E0B3E001C01D92A037B207E1F764D4BC
:100120000C94930B6DCF05C508951F920F920FB6D7
:100130000F9211242F933F934F935F936F937F936D
:100140008F939F93AF938091000390910103805808
:10015000914C9093010380930003909389008091C8
:1001600000038093880020910203309103034091A3
:100170000403509105036091060370910703809179
:10018000080390910903A1E0EBD720930203309379
:100190000303409304035093050360930603709395
:1001A00007038093080390930903AF919F918F9168
:1001B0007F916F915F914F913F912F910F900FBE63
:1001C0000F901F9018951F920F920FB60F92112447
:1001D0000F900FBE0F901F9018956F927F928F9285
:1001E0009F92AF92BF92CF92DF92EF92FF920F93C6
:1001F0001F93CF93DF93CDB7DEB760970FB6F89418
:10020000DEBF0FBECDBFF894F0910203E09103036F
:100210007091040360910503509106034091070318
:100220003091080320910903F987EA877B876C875F
:100230005D874E873F87288B789469847A84BB8555
:10024000AC85FD85EE850F8518894C01282F392D49
:1002500040E050E060E070E080E090E0A62CB72C39
:10026000CB2EDA2EEF2EFE2E72D729833A834B83C4
:100270005C836D837E838F839887F89470910203EB
:1002800060910303509104034091050330910603EC
:1002900020910703909108038091090379876A8769
:1002A0005B874C873D872E879F87888B789429852D
:1002B0003A854B855C856D857E858F859889A9807B
:1002C000BA80CB80DC80ED80FE800F81188554D70A
:1002D000A0F260960FB6F894DEBF0FBECDBFDF91DF
:1002E000CF911F910F91FF90EF90DF90CF90BF9033
:1002F000AF909F908F907F906F9008959C01E0EC5D
:10030000F0E0908195FFFDCF0FB6F8940F92E0ECEE
:10031000F0E0908195FFFDCFA1ECB0E01C92F901D7
:10032000EE0FFF1FEE0FFF1FEC51FD4F81818093F9
:10033000C50080818093C40088E98C930F900FBE24
:1003400008959C01E0EDF0E0908195FFFDCF0FB6A0
:10035000F8940F92E0EDF0E0908195FFFDCFA1EDD4
:10036000B0E01C92F901EE0FFF1FEE0FFF1FEC51E2
:10037000FD4F81818093D50080818093D40088E9EE
:100380008C930F900FBE08958F929F92AF92BF9261
:10039000CF92DF92EF92FF920F931F93CF93DF9351
:1003A000CDB7DEB7C659D1090FB6F894DEBF0FBE80
:1003B000CDBF8FE0EEE0F2E0DE01119601900D92EC
:1003C0008A95E1F787E0E5E3F2E0DE0150960190DF
:1003D0000D928A95E1F780E5EAE0F3E0DF011D92F6
:1003E0008A95E9F7FE01779680E8DF011D928A95EC
:1003F000E9F7A12CB12C4E01BFE08B0E911CC50179
:10040000A0DF82E090E0E9DEFE0131966F0100E0BE
:1004100010E0D6018D916D01BDD50F2EF7E1EF2EC5
:10042000F12CF02DEC0EFD1EE00EF11E09C000387F
:10043000110530F40F5F1F4F94D5F70181937F01B1
:1004400089D58111F4CFC814D90419F70F2EFAEF0A
:10045000CF2ED12CF02D13C00038110530F40F5FD2
:100460001F4F7FD5D7018D937D0174D58111F4CFB6
:1004700081E090E0B2DEB1E0CB1AD10851F00F2E4E
:10048000F7E1EF2EF12CF02DEC0EFD1EE00EF11E2B
:10049000ECCF101611060CF060C06E01E7E1CE0E35
:1004A000D11CE12CF12C42E050E0BE01605F7F4F97
:1004B000C6016BD6892B09F046C0E016F1060CF098
:1004C00042C0F601C70121912F3FC1F520812F3F86
:1004D000A9F59C012E5F3F4F41814F3F79F52E19C1
:1004E0003F092035310550F08DE192E09F938F93C5
:1004F0005AD60F900F908FEF9FEF3CC003968E1946
:100500009F09181619068CF4E7E1F0E0EC0FFD1FC7
:10051000EE0DFF1DAAE0B3E09C01265F3C4F419128
:100520004D93A217B307D9F702C080E090E0FC0119
:10053000E65FFC4F10828A2D9B2D1CC00196801710
:1005400091070CF4C0CFFFEFEF1AFF0A8FEFC81A24
:10055000D80A0E151F0509F0A6CF9FEFA91AB90AF0
:10056000ACE1AA16B10409F04ACF80E880930A03EF
:100570008FEF9FEFCA56DF4F0FB6F894DEBF0FBE66
:10058000CDBFDF91CF911F910F91FF90EF90DF9042
:10059000CF90BF90AF909F908F9008956F927F9271
:1005A0008F929F92AF92BF92CF92DF92EF92FF9283
:1005B0000F931F93CF93DF93CDB7DEB72B970FB673
:1005C000F894DEBF0FBECDBF5C016B018BE0ECE3A6
:1005D000F2E0DE01119601900D928A95E1F7161670
:1005E00017060CF048C0F501C501860F971F119240
:1005F000E817F907E1F73FC0EC14FD0434F01C14D0
:100600001D04E4F0E12CF12C25C07CD3F501EE0DA6
:10061000FF1D8083E1E0F0E0EC0FFD1FE80DF91D08
:100620009081891313C08FEF881A980A8AE0881680
:100630009104D9F08FEFE81AF80A0CC0F501119275
:10064000E017F107E1F7E12CF12C04C0812C912C8B
:10065000E12CF12C50D38111CFCF81E090E0BDDDB2
:1006600081E0681A710821F0F5CF80E090E011C0B8
:100670008FEF9FEF0EC00F2EF8E56F2EFBE17F2E60
:10068000F02D812C912CE12CF12C85010C0D1D1DE0
:10069000E1CF2B960FB6F894DEBF0FBECDBFDF9132
:1006A000CF911F910F91FF90EF90DF90CF90BF906F
:1006B000AF909F908F907F906F900895EF92FF92F0
:1006C0000F931F93CF93DF93CDB7DEB7C458D109F3
:1006D0000FB6F894DEBF0FBECDBF8AE1CF57DF4F14
:1006E0008883C158D0408FEFCE57DF4F8883C258E0
:1006F000D040CD57DF4F8883C358D040CC57DF4F11
:100700008883C458D04060E870E0CE01019646DF8F
:100710009923ECF08E010F571F4F780184E0E80E0B
:10072000F11CF80181918F0106D3E016F106C9F79B
:1007300080910A03882371F00BE013E0FCD2F801EA
:1007400081918F018111FACF80E090E005C08FEF99
:100750009FEF02C080E090E0CC57DF4F0FB6F894D7
:10076000DEBF0FBECDBFDF91CF911F910F91FF90E4
:10077000EF9008957F928F929F92AF92BF92CF9207
:10078000DF92EF92FF920F931F93CF93DF93CDB73A
:10079000DEB72E970FB6F894DEBF0FBECDBF19821D
:1007A0001A821B821C828AE0E7E4F2E0DE011596E1
:1007B00001900D928A95E1F70F2EF8E88F2EF3E164
:1007C0009F2EF02D00E0C12CD12CA12CB12CE12CBE
:1007D000F12C7724739467C095D2182FDBD30111C5
:1007E0001BC0E5E0F0E0EC0FFD1FEE0DFF1D80816A
:1007F000181357C08FEFE81AF80A89E0E816F104D9
:1008000009F051C019821A821B821C82072DC12C4B
:10081000D12CA12CB12C47C01F3F61F48FEFA81A37
:10082000B80A83E0A816B10451F469817A818B81FA
:100830009C815AC01C3219F48FEFC81AD80A81E083
:10084000C816D10481F580ED810F8A3060F5898169
:100850009A81AB81BC81880F991FAA1FBB1FAC0175
:10086000BD01440F551F661F771F440F551F661F9C
:10087000771F840F951FA61FB71F89839A83AB83A9
:10088000BC8389819A81AB81BC81810F911DA11D9F
:10089000B11DC097A109B10989839A83AB83BC8339
:1008A00002C0E12CF12C27D2811196CF02C059D37E
:1008B00042D250D38111FBCF81E090E08EDC81E009
:1008C000881A910881F789819A81AB81BC811816B9
:1008D00019061A061B062CF469817A818B819C818A
:1008E00003C06FEF7FEFCB012E960FB6F894DEBFFB
:1008F0000FBECDBFDF91CF911F910F91FF90EF9071
:10090000DF90CF90BF90AF909F908F907F90089591
:1009100031DF6B017C01FF92EF92DF926F9381E5F3
:1009200092E09F938F933FD40F900F900F900F9072
:100930000F900F9080E6C81689E0D806E104F10414
:10094000C9F1C11482ECD80681E0E806F10419F17E
:1009500080ECC81682E1D806E104F104F9F0C11474
:1009600081EED806E104F104E1F080E8C81685E2E2
:10097000D806E104F104C1F0C11486E9D806E10407
:10098000F104A9F0C1148BE4D806E104F104A9F440
:10099000C6E0D0E014C0C1E0D0E011C0C2E0D0E0B9
:1009A0000EC0C3E0D0E00BC0C4E0D0E008C0C5E09A
:1009B000D0E005C0C0E0D0E002C0C7E0D0E0CE018A
:1009C0009DDCCE01BEDC97D1882311F09BD1E2D211
:1009D00092D1882329F096D1DDD202C0C2D2ABD108
:1009E000B9D28111FBCFEFCFCF93DF93CDB7DEB775
:1009F0002A970FB6F894DEBF0FBECDBF88E0ECEDAE
:100A0000F2E0DE01139601900D928A95E1F78BDBFF
:100A100078941A82198289819A81079798F4E981DA
:100A2000FA8183E090E08C0F9D1FE80FF91F808111
:100A300048D389819A8101969A83898389819A8191
:100A4000079768F38FEF9FEF9A83898389819A8153
:100A5000181619067CF006E612E01F930F93A3D335
:100A600093DC9A83898389819A810F900F9018165D
:100A700019069CF784E792E09F938F9394D38FEFAE
:100A80009FEF9A8389830F900F9000E812E00F2E5A
:100A9000F8EAEF2EF2E0FF2EF02D11C01F930F9316
:100AA00082D30CDE9A83898389819A810F900F907B
:100AB00099232CF0FF92EF9276D30F900F908981BB
:100AC0009A8199235CF383EC92E09F938F936BD38D
:100AD0001FDF68987098699A71984CC10895529870
:100AE0005A98539A5B98BEC10895A1E0B1E08C91E9
:100AF0008E7F8C93E2E0F1E080818E7F80838C9109
:100B000082608C9380818D7F808363C20895A4E08E
:100B1000B1E08C918E7F8C93E5E0F1E080818E7F57
:100B200080838C9182608C9380818D7F8083ECC2E6
:100B300008958FE3809365008FEE8093640081B108
:100B400011B882B18FEF82B994B114B895B185B95B
:100B500097B117B898B188B99AB11AB89BB18BB947
:100B60009DB11DB89EB18EB990B310BA91B381BB3F
:100B700093B3907C93BB94B39F6394BBE1E0F1E0AB
:100B800090811082E2E0F1E090818083E4E0F1E086
:100B900090811082E5E0F1E090818083E7E0F1E070
:100BA00090811082E8E0F1E090818083EAE0F1E05A
:100BB00090811082EBE0F1E090818083279A2F985A
:100BC00040E060E881E690E009D013BE15BE0ED08B
:100BD00024D07FDF84DF89DF9ACF08952FB7F89480
:100BE0001BBEFC01608340832FBF0895E4E6F0E064
:100BF0008081877F808381E08093810080E89EE30D
:100C0000909389008093880090938B0080938A0052
:100C100082E080936F0080E00895E5E6F0E0808157
:100C2000877F808381E08093910080E89EE39093AA
:100C300099008093980082E08093710080E008958D
:100C40001F920F920FB60F9211240BB60F928F9333
:100C50009F93EF93FF938091C600E091E903EF5FCC
:100C6000EF77E093E9039091E803F0E0E651FC4F61
:100C700080838091E7038F5F8093E703FF91EF917B
:100C80009F918F910F900BBE0F900FBE0F901F90F2
:100C900018951F920F920FB60F9211240BB60F9258
:100CA0008F93EF93FF938091D403882389F0E09191
:100CB000D503EF5FEF70E093D503F0E0E952FC4F0E
:100CC00080818093C6008091D40381508093D403A7
:100CD0008091D403811105C0E1ECF0E080818F7D2B
:100CE0008083FF91EF918F910F900BBE0F900FBEFD
:100CF0000F901F9018959091E70381E0911101C02A
:100D000080E008958091E7038823E1F3E091E80310
:100D1000EF5FEF77E093E8030FB6F8940F928091BE
:100D2000E70381508093E7030F900FBEF0E0E65198
:100D3000FC4F808108952091D6032F5F2F709091F2
:100D4000D4039031E1F3E22FF0E0E952FC4F8083CD
:100D50002093D6030FB6F8940F928091D4038F5F3F
:100D60008093D4030F900FBEE1ECF0E080818062AD
:100D700080830895E4E6F0E080818D7F8083109287
:100D8000C50087E68093C4001092C00088E9809374
:100D9000C1001092E8031092E9031092E703109249
:100DA000D5031092D6031092D40380E008951F92C9
:100DB0000F920FB60F9211240BB60F928F939F9341
:100DC000EF93FF938091CE00E091CB03EF5FE7704C
:100DD000E093CB039091CA03F0E0E453FC4F80838F
:100DE0008091C9038F5F8093C903FF91EF919F9119
:100DF0008F910F900BBE0F900FBE0F901F90189504
:100E00001F920F920FB60F9211240BB60F928F9371
:100E1000EF93FF938091BE03882389F0E091BF0395
:100E2000EF5FE770E093BF03F0E0EF53FC4F80818A
:100E30008093CE008091BE0381508093BE03809149
:100E4000BE03811105C0E9ECF0E080818F7D8083D5
:100E5000FF91EF918F910F900BBE0F900FBE0F90EF
:100E60001F901895E5E6F0E080818E7F80831092D8
:100E7000CD0087E68093CC001092C80088E980936B
:100E8000C9001092CA031092CB031092C9031092AA
:100E9000BF031092C0031092BE0380E008951F921A
:100EA0000F920FB60F9211240BB60F928F939F9350
:100EB000EF93FF938091D600E0917D03EF5FEF7396
:100EC000E0937D0390917C03F0E0E258FC4F808337
:100ED00080917B038F5F80937B03FF91EF919F91C4
:100EE0008F910F900BBE0F900FBE0F901F90189513
:100EF0001F920F920FB60F9211240BB60F928F9381
:100F0000EF93FF9380917003882389F0E091710340
:100F1000EF5FE770E0937103F0E0ED58FC4F8081E4
:100F20008093D600809170038150809370038091EC
:100F30007003811105C0E1EDF0E080818F7D808339
:100F4000FF91EF918F910F900BBE0F900FBE0F90FE
:100F50001F90189590917B0381E0911101C080E072
:100F6000089580917B038823E1F3E0917C03EF5F98
:100F7000EF73E0937C030FB6F8940F9280917B039C
:100F8000815080937B030F900FBEF0E0E258FC4F3E
:100F900080810895209172032F5F277090917003D4
:100FA0009830E1F3E22FF0E0ED58FC4F808320937E
:100FB00072030FB6F8940F92809170038F5F809345
:100FC00070030F900FBEE1EDF0E0808180628083BE
:100FD0000895E5E6F0E080818D7F80831092D50052
:100FE00087E68093D4001092D00088E98093D100E6
:100FF00010927C0310927D0310927B031092710378
:10100000109272031092700380E008951F920F9265
:101010000FB60F9211240BB60F928F939F93EF93FD
:10102000FF9380913601E0916703EF5FE770E093F3
:10103000670390916603F0E0E859FC4F808380914C
:1010400065038F5F80936503FF91EF919F918F916F
:101050000F900BBE0F900FBE0F901F9018951F9210
:101060000F920FB60F9211240BB60F928F93EF933E
:10107000FF9380915A03882389F0E0915B03EF5F2F
:10108000E770E0935B03F0E0E35AFC4F80818093CC
:10109000360180915A03815080935A0380915A03FC
:1010A000811105C0E1E3F1E080818F7D8083FF91B4
:1010B000EF918F910F900BBE0F900FBE0F901F906E
:1010C000189520915C032F5F277090915A039830F8
:1010D000E1F3E22FF0E0E35AFC4F808320935C03BE
:1010E0000FB6F8940F9280915A038F5F80935A0342
:1010F0000F900FBEE1E3F1E080818062808308956C
:10110000E0DF80E090E00895E5E6F0E080818B7F0D
:1011100080831092350187E680933401109230016C
:1011200088E9809331011092660310926703109250
:10113000650310925B0310925C0310925A0380E0E7
:1011400092E090936D0480936C0480E008952A0DE2
:101150003B1D4C1D5D1D6E1D7F1D801F911F089541
:101160000024A7FD00942A0F301D401D501D601D56
:10117000701D801D901D08952A153B054C055D05C9
:101180006E057F05800791070895FB01DC01415042
:10119000504030F08D910190801919F40020B9F77A
:1011A000881B990B0895CF93DF93CDB7DEB7AE01BF
:1011B0004A5F5F4FFA0161917191AF0180916C04B8
:1011C00090916D0403D0DF91CF9108952F923F92BB
:1011D0004F925F926F927F928F929F92AF92BF9247
:1011E000CF92DF92EF92FF920F931F93CF93DF93F3
:1011F000CDB7DEB72B970FB6F894DEBF0FBECDBFCD
:101200006C017B018A01FC0117821682838181FFB8
:10121000BFC1CE0101963C01F6019381F70193FD18
:10122000859193FF81917F01882309F4ADC18532B7
:1012300039F493FD859193FF81917F01853221F4EB
:10124000B60190E0D6D1E8CF912C212C312CFFE1D2
:10125000F315D8F08B3279F038F4803279F083329C
:10126000A1F4232D20611DC08D3261F0803369F41B
:10127000232D216016C0832D8260382EE32DE4607B
:101280003E2E2AC0F32DF8601DC037FC2DC020ED86
:10129000280F2A3040F08E32B9F436FC75C1232D68
:1012A0002064322E19C036FE06C08AE0989E200DBA
:1012B0001124922E11C0EAE02E9E200D1124222E20
:1012C000F32DF0623F2E08C08C3621F4832D806808
:1012D000382E02C0883641F4F70193FD859193FFC3
:1012E00081917F018111B3CF982F9F7D95549330C9
:1012F00028F40C5F1F4F9FE399830DC0833631F0B4
:10130000833771F0833509F055C020C0F801808122
:1013100089830E5F1F4F88248394912C530112C040
:101320002801F2E04F0E511CF801A080B18036FE7A
:1013300003C0692D70E002C06FEF7FEFC5014ED191
:101340004C018201F32DFF773F2E15C0280122E0CA
:10135000420E511CF801A080B18036FE03C0692DF9
:1013600070E002C06FEF7FEFC5012DD14C01F32D6E
:10137000F0683F2E820133FC19C0822D90E0881660
:101380009906A0F4B60180E290E033D12A94F5CF1B
:10139000F50137FC859137FE81915F01B60190E040
:1013A00028D121102A9421E0821A910881149104F5
:1013B00079F7E1C0843611F0893639F5F80137FE46
:1013C00007C060817181828193810C5F1F4F08C0CB
:1013D00060817181072E000C880B990B0E5F1F4FE7
:1013E000F32DFF763F2E97FF09C09095809570955D
:1013F00061957F4F8F4F9F4FF0683F2E2AE030E07E
:10140000A30133D1882E861844C0853731F4232DAB
:101410002F7EB22E2AE030E025C0932D997FB92E81
:101420008F36C1F018F4883579F0AEC0803719F0E6
:10143000883721F0A9C0E92FE061BE2EB4FE0DC0AF
:10144000FB2DF460BF2E09C034FE0AC0292F266090
:10145000B22E06C028E030E005C020E130E002C036
:1014600020E132E0F801B7FE07C06081718182811E
:1014700093810C5F1F4F06C06081718180E090E016
:101480000E5F1F4FA301F1D0882E8618FB2DFF772A
:101490003F2E36FE0DC0232D2E7FA22E891458F428
:1014A00034FE0BC032FC09C0832D8E7EA82E05C0F1
:1014B000B82CA32C03C0B82C01C0B92CA4FE0FC0BB
:1014C000FE01E80DF11D8081803321F49A2D997E73
:1014D000A92E09C0A2FE06C0B394B39404C08A2DFD
:1014E000867809F0B394A3FC10C0A0FE06C0B21425
:1014F00080F4280C922C9B180DC0B21458F4B6013D
:1015000080E290E076D0B394F8CFB21418F42B18A0
:1015100002C0982C212CA4FE0FC0B60180E390E0FD
:1015200068D0A2FE16C0A1FC03C088E790E002C00C
:1015300088E590E0B6010CC08A2D867851F0A1FEB6
:1015400002C08BE201C080E2A7FC8DE2B60190E010
:1015500050D0891430F4B60180E390E04AD09A94D8
:10156000F8CF8A94F301E80DF11D8081B60190E077
:1015700040D08110F6CF222009F44ECEB60180E291
:1015800090E037D02A94F7CFF6018681978102C088
:101590008FEF9FEF2B960FB6F894DEBF0FBECDBF37
:1015A000DF91CF911F910F91FF90EF90DF90CF903F
:1015B000BF90AF909F908F907F906F905F904F9073
:1015C0003F902F900895FC010590615070400110EC
:1015D000D8F7809590958E0F9F1F0895FC0161505C
:1015E000704001900110D8F7809590958E0F9F1F45
:1015F00008950F931F93CF93DF93FB01238121FD68
:1016000003C08FEF9FEF2CC022FF16C04681578189
:10161000248135814217530744F4A081B1819D0193
:101620002F5F3F4F318320838C93268137812F5F3B
:101630003F4F3783268314C08B01EC01FB010084EC
:10164000F185E02D1995892BE1F6D80116968D913B
:101650009C911797019617969C938E931697CE019F
:10166000DF91CF911F910F910895FA01AA27283099
:1016700051F1203181F1E8946F936E7F6E5F7F4F5F
:101680008F4F9F4FAF4FB1E03ED0B4E03CD0670FDB
:10169000781F891F9A1FA11D680F791F8A1F911D2E
:1016A000A11D6A0F711D811D911DA11D20D009F47E
:1016B00068943F912AE0269F11243019305D3193C0
:1016C000DEF6CF010895462F4770405D4193B3E0A9
:1016D0000FD0C9F7F6CF462F4F70405D4A3318F050
:1016E000495D31FD4052419302D0A9F7EACFB4E001
:1016F000A6959795879577956795BA95C9F70097B9
:101700006105710508959B01AC010A2E0694579559
:10171000479537952795BA95C9F7620F731F841FB0
:0A172000951FA01D0895F894FFCF57
:10172A00000000020000000080080000000000FF26
:10173A00FFFF636F6E6E656374FFFFFF004C4344E7
:10174A0020726573706F6E736520746F6F206C6F93
:10175A006E670A0D00636F6D6F6B2000636F6E6EAC
:10176A00656374FFFFFF0077686D692D77726920E2
:10177A0000476F742055706C6F616420636D64203C
:10178A00256C640A0D0046696E64696E67204C43D5
:10179A00440A0D00466F756E64204C43440A0D00DE
:1017AA0057616974696E6720666F72204E65787436
:1017BA00696F6E20456469746F7220746F20636F5D
:1017CA006E6E6563740A0D004E657874696F6E20DB
:1017DA00456469746F7220636F6E6E6563746564C5
:1017EA000A0D0057616974696E6720666F72207509
:1017FA00706C6F616420636D640A0D0048656C6CDF
:10180A006F0D0A00A001400308001000CF00A001DC
:10181A00100022006700CF00190033003300670070
:00000001FF
