S01D00006173796E632073657269616C207472616E736665722E73726563C4
S113000077C0000095C0000093C0000091C00000BC
S11300108FC000008DC000008BC0000089C00000AC
S113002087C0000085C0000083C0000081C00000BC
S11300307FC000007DC000007BC0000079C00000CC
S113004077C0000078C0000073C0000071C00000D9
S11300506FC000006DC000006BC0000069C00000EC
S113006067C000008EC50000B5C5000061C0000077
S11300705FC000005DC000005BC0000059C000000C
S1130080A8C0000055C0000053C0000051C00000CB
S11300902FC6000056C600004BC0000049C0000037
S11300A047C0000045C0000043C0000041C000003C
S11300B03FC000003DC000003BC0000039C000004C
S11300C037C0000035C0000033C0000089C60000FE
S11300D0B0C600002DC000003AC7000061C7000090
S11300E027C000006364696E6F70737578585B0095
S11300F011241FBECFEFD1E2DEBFCDBF00E00CBFA5
S113010012E0A0E0B2E0EAE1FDE100E00BBF02C0D2
S113011007900D92A23CB107D9F724E0A2ECB2E01B
S113012001C01D92A233B207E1F7F6D30C948B0EF3
S113013067CF9CC408951F920F920FB60F9211249B
S11301402F933F934F935F936F937F938F939F93DB
S1130150AF938091C2029091C3028058914C9093C6
S1130160C3028093C202909389008091C20280935B
S113017088002091C4023091C5024091C60250917A
S1130180C7026091C8027091C9028091CA0290911D
S1130190CB02A1E086D72093C4023093C5024093DA
S11301A0C6025093C7026093C8027093C902809339
S11301B0CA029093CB02AF919F918F917F916F91DF
S11301C05F914F913F912F910F900FBE0F901F9011
S11301D018951F920F920FB60F9211240F900FBE15
S11301E00F901F9018956F927F928F929F92AF926B
S11301F0BF92CF92DF92EF92FF920F931F93CF9310
S1130200DF93CDB7DEB760970FB6F894DEBF0FBEAD
S1130210CDBFF894F091C402E091C5027091C6027A
S11302206091C7025091C8024091C9023091CA023C
S11302302091CB02F987EA877B876C875D874E879D
S11302403F87288B78944C0169847A84BB85AC857C
S1130250FD85EE850F851889282F392D40E050E063
S113026060E070E080E090E0A62CB72CCB2EDA2E74
S1130270EF2EFE2E0DD729833A834B835C836D8347
S11302807E838F839887F8947091C4026091C5022D
S11302905091C6024091C7023091C8022091C90210
S11302A09091CA028091CB0279876A875B874C87D9
S11302B03D872E879F87888B789429853A854B853F
S11302C05C856D857E858F859889A980BA80CB8071
S11302D0DC80ED80FE800F811885EFD6A0F2609659
S11302E00FB6F894DEBF0FBECDBFDF91CF911F9143
S11302F00F91FF90EF90DF90CF90BF90AF909F90C1
S11303008F907F906F900895AF92BF92CF92DF92BB
S1130310EF92FF920F931F93CF93DF93CDB7DEB786
S1130320C659D1090FB6F894DEBF0FBECDBF8FE01A
S1130330EEE0F2E0DE01119601900D928A95E1F76C
S113034087E0E5E3F2E0DE01509601900D928A9594
S1130350E1F780E090E005C0FC01E453FD4F10821A
S1130360019680359105C0F380E090E008C0E7E194
S1130370F0E0EC0FFD1FE80FF91F108201968038A2
S11303809105A8F3C12CD12CCFC0F601EE0FFF1FAD
S1130390EE0FFF1FEA55FD4F81818093D5008081C8
S11303A08093D4008AE090E01EDF00E010E0A12CEE
S11303B0B12C1FC0E1E0F0E0EC0FFD1FEA0DFB1DC6
S11303C0808189D510C00038110568F478012FEFB9
S11303D0E21AF20A67D5E7E1F0E0EC0FFD1FE00F47
S11303E0F11F8083870157D58111EDCF3FEFA31A09
S11303F0B30A4EE0A416B104E8F2A12CB12C19C042
S11304000038110568F478015FEFE51AF50A4AD55A
S1130410E7E1F0E0EC0FFD1FE00FF11F808387019F
S11304203AD58111EDCF81E090E0DDDE8FEFA81A9F
S1130430B80A2AEFA216B1049CF30115110509F0BC
S11304406AC06FC042E050E0BE01605F7F4F87E149
S113045090E08C0F9D1F8E0D9F1D38D6892B09F4BB
S113046051C055C0E7E1F0E0EC0FFD1FE80FF91FA4
S113047020812F3F09F044C0FC01319647E150E050
S11304804C0F5D1FE40FF51F20812F3FC9F59C0120
S11304902E5F3F4FFA01E20FF31F40814F3F81F57A
S11304A02E193F092035310550F08DE192E09F93DC
S11304B08F931AD60F900F908FEF9FEF3CC0039647
S11304C08E199F0920E030E011C0E7E1F0E0EC0F65
S11304D0FD1FEE0DFF1D4081F901E453FD4F4083E4
S11304E0A7014F5F5F4F7A012F5F3F4F28173907EE
S11304F064F3F901E453FD4F10828C2D9D2D1BC034
S1130500019601C0C701801791070CF4ABCF5FEFD0
S1130510E51AF50A02C0E12CF12CE016F1060CF400
S113052091CF8FEFC81AD80A2CE1C216D10408F46F
S11305302CCF8FEF9FEFCA56DF4F0FB6F894DEBF74
S11305400FBECDBFDF91CF911F910F91FF90EF9020
S1130550DF90CF90BF90AF9008956F927F928F926B
S11305609F92AF92BF92CF92DF92EF92FF920F933E
S11305701F93CF93DF93CDB7DEB72C970FB6F894C4
S1130580DEBF0FBECDBF6C017B018BE0ECE3F2E07C
S1130590DE01129601900D928A95E1F700E010E0D9
S11305A006C0F601E00FF11F10820F5F1F4F0E15FA
S11305B01F05BCF3612C712C812C912CA12CB12C26
S11305C03FC0AE14BF0434F53ED3898395012F5F39
S11305D03F4FF601EA0DFB1D89818083E2E0F0E0E4
S11305E0EC0FFD1FE80DF91D9081898198131AC045
S11305F08FEF881A980A8BE088169104B9F409835E
S113060081E090E024C0F601E00FF11F10820F5F3B
S11306101F4F02C000E010E00E151F05A4F3A12C2B
S1130620B12C05C05901812C912C01C0590104D36E
S11306308111C7CF81E090E0D6DD8FEF681A780A88
S113064088E8681683E1780694F38FEF9FEF2C9681
S11306500FB6F894DEBF0FBECDBFDF91CF911F91CF
S11306600F91FF90EF90DF90CF90BF90AF909F904D
S11306708F907F906F900895CF93DF93CDB7DEB7BF
S1130680C658D1090FB6F894DEBF0FBECDBF8AE1BC
S1130690CD57DF4F8883C358D0408FEFCC57DF4FFF
S11306A08883C458D040CB57DF4F8883C558D04087
S11306B0CA57DF4F8883C658D04060E870E0CE0147
S11306C003964BDF9A83898389819A8199239CF1CC
S11306D01A82198219C0E981FA8183E890E08C0FAB
S11306E09D1FE80FF91F8081C7D2E981FA8183E851
S11306F090E08C0F9D1FE80FF91F808183D48981BE
S11307009A8101969A83898389819A8104971CF33B
S11307101A82198206C0E981FA81E453FD4F80816F
S1130720ABD2E981FA81E453FD4F80818111F3CF8B
S113073080E090E002C08FEF9FEFCA57DF4F0FB603
S1130740F894DEBF0FBECDBFDF91CF9108953F92E5
S11307504F925F926F927F928F929F92AF92BF92CD
S1130760CF92DF92EF92FF920F931F93CF93DF9379
S1130770CDB7DEB72A970FB6F894DEBF0FBECDBF54
S11307807C018B018AE0E7E4F2E0DE01119601903E
S11307900D928A95E1F780E090E005C0F701E80F3B
S11307A0F91F1082019680179107C4F3312CA12CF4
S11307B0B12C412C512C612C712CC12CD12C50C04A
S11307C0C016D1067CF53FD246019FEF891A990ADB
S11307D0F701EC0DFD1D8083311013C0E1E0F0E062
S11307E0EC0FFD1FE60DF71D9081891326C00AD476
S11307F08FEF681A780A9AE06916710419F1640196
S113080026C08F3F19F58FEFA81AB80A93E0A916EE
S1130810B10471F164011BC0F701E80FF91F1082E4
S1130820019602C080E090E080179107ACF3312C70
S1130830A12CB12CC12CD12C0AC0612C712CC12C3F
S1130840D12C05C064013324339401C06401F4D174
S11308508111B6CF81E090E0C6DC8FEF481A580AC8
S113086098E8491693E1590694F38FEF9FEF02C07D
S113087080E090E02A960FB6F894DEBF0FBECDBF9D
S1130880DF91CF911F910F91FF90EF90DF90CF9068
S1130890BF90AF909F908F907F906F905F904F909C
S11308A03F900895CF93DF93CDB7DEB7C859D109F0
S11308B00FB6F894DEBF0FBECDBF60E870E0CE0186
S11308C0019645DF9923E4F0CE018B579F4F9F9308
S11308D08F9304979F938F9308969F938F9381E5AB
S11308E092E09F938F93CE0101969F938F930FD4A1
S11308F00FB6F894DEBF0FBECDBF80E090E002C01B
S11309008FEF9FEFC856DF4F0FB6F894DEBF0FBED0
S1130910CDBFDF91CF910895CF93DF93CDB7DEB7ED
S11309202A970FB6F894DEBF0FBECDBF88E0EEE97C
S1130930F2E0DE01139601900D928A95E1F7F9DB5E
S113094078941A8219820FC0E981FA8183E090E0D9
S11309508C0F9D1FE80FF91F808154D389819A81E0
S113096001969A83898389819A81079768F38FEF27
S11309709FEF9A8389830AC08CE592E09F938F93BB
S1130980B3D3C2DC9A8389830F900F9089819A81B3
S1130990181619068CF78AE692E09F938F93A4D3D6
S11309A08FEF9FEF9A8389830F900F900AC086E799
S11309B092E09F938F9398D35FDE9A8389830F90FD
S11309C00F9089819A81992394F36CDF8091CC02F2
S11309D0882321F085B1806885B9C9CF85B18F7727
S11309E085B9C5CFA4C00895B9C008958DB18E7FCF
S11309F08DB98EB18E7F8EB98DB182608DB98EB175
S1130A008D7F8EB958C108958AB18B7F8AB98BB115
S1130A108B7F8BB98AB188608AB98BB1877F8BB998
S1130A20C2C10895A1E0B1E08C918E7F8C93E2E085
S1130A30F1E080818E7F80838C9182608C938081B1
S1130A408D7F808367C20895A4E0B1E08C918E7F8E
S1130A508C93E5E0F1E080818E7F80838C918260CD
S1130A608C9380818D7F8083F0C208958FE380937F
S1130A7065008FEE8093640081B111B882B18FEF6D
S1130A8082B994B114B895B185B997B117B898B132
S1130A9088B99AB11AB89BB18BB99DB11DB89EB1F2
S1130AA08EB990B310BA91B381BB93B3907C93BBCE
S1130AB094B39F6394BBE1E0F1E090811082E2E0A3
S1130AC0F1E090818083E4E0F1E090811082E5E040
S1130AD0F1E090818083E7E0F1E090811082E8E02A
S1130AE0F1E090818083EAE0F1E090811082EBE014
S1130AF0F1E09081808384B1806884B985B18F7777
S1130B0085B940E060E881E690E009D013BE15BEE7
S1130B1069DF6ADF6BDF78DF85DF96CF08952FB753
S1130B20F8941BBEFC01608340832FBF0895E4E664
S1130B30F0E08081877F808381E08093810080E87A
S1130B409EE3909389008093880090938B00809318
S1130B508A0082E080936F0080E00895E5E6F0E08B
S1130B608081877F808381E08093910080E89EE389
S1130B70909399008093980082E08093710080E0C4
S1130B8008951F920F920FB60F9211240BB60F9275
S1130B908F939F93EF93FF938091C600E091AB03F3
S1130BA0EF5FEF77E093AB039091AA03F0E0E45595
S1130BB0FC4F80838091A9038F5F8093A903FF91E9
S1130BC0EF919F918F910F900BBE0F900FBE0F90DE
S1130BD01F9018951F920F920FB60F9211240BB607
S1130BE00F928F93EF93FF9380919603882389F05C
S1130BF0E0919703EF5FEF70E0939703F0E0E7561F
S1130C00FC4F80818093C60080919603815080932D
S1130C10960380919603811105C0E1ECF0E0808198
S1130C208F7D8083FF91EF918F910F900BBE0F907A
S1130C300FBE0F901F9018959091A90381E0911118
S1130C4001C080E008958091A9038823E1F3E09135
S1130C50AA03EF5FEF77E093AA030FB6F8940F921D
S1130C608091A90381508093A9030F900FBEF0E0F7
S1130C70E455FC4F80810895209198032F5F2F70D5
S1130C80909196039031E1F3E22FF0E0E756FC4FA8
S1130C908083209398030FB6F8940F928091960363
S1130CA08F5F809396030F900FBEE1ECF0E080819C
S1130CB0806280830895E4E6F0E080818D7F808304
S1130CC01092C50087E68093C4001092C00088E9A2
S1130CD08093C1001092AA031092AB031092A9034F
S1130CE010929703109298031092960380E008954F
S1130CF01F920F920FB60F9211240BB60F928F937F
S1130D009F93EF93FF938091CE00E0918D03EF5F6B
S1130D10E770E0938D0390918C03F0E0E257FC4F71
S1130D20808380918B038F5F80938B03FF91EF917E
S1130D309F918F910F900BBE0F900FBE0F901F903D
S1130D4018951F920F920FB60F9211240BB60F92A3
S1130D508F93EF93FF9380918003882389F0E09130
S1130D608103EF5FE770E0938103F0E0ED57FC4F00
S1130D7080818093CE008091800381508093800392
S1130D8080918003811105C0E9ECF0E080818F7DC2
S1130D908083FF91EF918F910F900BBE0F900FBE48
S1130DA00F901F901895E5E6F0E080818E7F808398
S1130DB01092CD0087E68093CC001092C80088E999
S1130DC08093C90010928C0310928D0310928B03B0
S1130DD010928103109282031092800380E00895A0
S1130DE01F920F920FB60F9211240BB60F928F938E
S1130DF09F93EF93FF938091D600E0913F03EF5FC1
S1130E00EF73E0933F0390913E03F0E0E05CFC4F0E
S1130E10808380913D038F5F80933D03FF91EF9129
S1130E209F918F910F900BBE0F900FBE0F901F904C
S1130E3018951F920F920FB60F9211240BB60F92B2
S1130E408F93EF93FF9380913203882389F0E0918D
S1130E503303EF5FE770E0933303F0E0EB5CFC4FA8
S1130E6080818093D6008091320381508093320335
S1130E7080913203811105C0E1EDF0E080818F7D26
S1130E808083FF91EF918F910F900BBE0F900FBE57
S1130E900F901F90189590913D0381E0911101C02E
S1130EA080E0089580913D038823E1F3E0913E03BF
S1130EB0EF5FEF73E0933E030FB6F8940F928091C7
S1130EC03D03815080933D030F900FBEF0E0E05C42
S1130ED0FC4F80810895209134032F5F27709091F7
S1130EE032039830E1F3E22FF0E0EB5CFC4F8083B7
S1130EF0209334030FB6F8940F92809132038F5FDE
S1130F00809332030F900FBEE1EDF0E080818062A8
S1130F1080830895E5E6F0E080818D7F80831092E0
S1130F20D50087E68093D4001092D00088E980939E
S1130F30D10010923E0310923F0310923D03109291
S1130F403303109234031092320380E008951F9209
S1130F500F920FB60F9211240BB60F928F939F939B
S1130F60EF93FF9380913601E0912903EF5FE770DF
S1130F70E093290390912803F0E0E65DFC4F808321
S1130F80809127038F5F80932703FF91EF919F91B7
S1130F908F910F900BBE0F900FBE0F901F9018955E
S1130FA01F920F920FB60F9211240BB60F928F93CC
S1130FB0EF93FF9380911C03882389F0E0911D0334
S1130FC0EF5FE770E0931D03F0E0E15EFC4F80818A
S1130FD08093360180911C03815080931C0380917F
S1130FE01C03811105C0E1E3F1E080818F7D8083E2
S1130FF0FF91EF918F910F900BBE0F900FBE0F904A
S11310001F90189520911E032F5F277090911C0349
S11310109830E1F3E22FF0E0E15EFC4F808320930F
S11310201E030FB6F8940F9280911C038F5F809378
S11310301C030F900FBEE1E3F1E0808180628083A6
S11310400895E0DF80E090E00895E5E6F0E0808137
S11310508B7F80831092350187E680933401109250
S1131060300188E9809331011092280310922903FA
S11310701092270310921D0310921E0310921C035A
S113108080E092E090932F0480932E0480E00895F2
S11310902A0D3B1D4C1D5D1D6E1D7F1D801F911F64
S11310A008950024A7FD00942A0F301D401D501DF3
S11310B0601D701D801D901D08952A153B054C056B
S11310C05D056E057F05800791070895FB01DC012E
S11310D04150504030F08D910190801919F4002056
S11310E0B9F7881B990B0895CF93DF93CDB7DEB77B
S11310F0AE014A5F5F4FFA0161917191AF01809136
S11311002E0490912F0424D0DF91CF910895CF9392
S1131110DF93CDB7DEB72E970FB6F894DEBF0FBEC0
S1131120CDBF85E08C838C899D899A838983AE01A8
S1131130485E5F4F6E897F89CE010196B8D32E96A3
S11311400FB6F894DEBF0FBECDBFDF91CF910895E7
S11311502F923F924F925F926F927F928F929F92C3
S1131160AF92BF92CF92DF92EF92FF920F931F93B1
S1131170CF93DF93CDB7DEB72B970FB6F894DEBFCE
S11311800FBECDBF6C017B018A01FC011782168260
S1131190838181FFBFC1CE0101963C01F601938199
S11311A0F70193FD859193FF81917F01882309F4D1
S11311B0ADC1853239F493FD859193FF81917F010F
S11311C0853221F4B60190E0F0D4E8CF912C212CA3
S11311D0312CFFE1F315D8F08B3279F038F48032FA
S11311E079F08332A1F4232D20611DC08D3261F08A
S11311F0803369F4232D216016C0832D8260382E3C
S1131200E32DE4603E2E2AC0F32DF8601DC037FCA8
S11312102DC020ED280F2A3040F08E32B9F436FC70
S113122075C1232D2064322E19C036FE06C08AE013
S1131230989E200D1124922E11C0EAE02E9E200DBE
S11312401124222EF32DF0623F2E08C08C3621F497
S1131250832D8068382E02C0883641F4F70193FD4F
S1131260859193FF81917F018111B3CF982F9F7D49
S11312709554933028F40C5F1F4F9FE399830DC05E
S1131280833631F0833771F0833509F055C020C0BF
S1131290F801808189830E5F1F4F88248394912CE9
S11312A0530112C02801F2E04F0E511CF801A08036
S11312B0B18036FE03C0692D70E002C06FEF7FEF8E
S11312C0C5012AD44C018201F32DFF773F2E15C0AE
S11312D0280122E0420E511CF801A080B18036FEA4
S11312E003C0692D70E002C06FEF7FEFC50109D420
S11312F04C01F32DF0683F2E820133FC19C0822D7E
S113130090E088169906A0F4B60180E290E04DD4EE
S11313102A94F5CFF50137FC859137FE81915F0161
S1131320B60190E042D421102A9421E0821A910857
S11313308114910479F7E1C0843611F0893639F5C6
S1131340F80137FE07C060817181828193810C5F4F
S11313501F4F08C060817181072E000C880B990B08
S11313600E5F1F4FF32DFF763F2E97FF09C0909518
S11313708095709561957F4F8F4F9F4FF0683F2EFA
S11313802AE030E0A30166D4882E861844C085374D
S113139031F4232D2F7EB22E2AE030E025C0932D88
S11313A0997FB92E8F36C1F018F4883579F0AEC024
S11313B0803719F0883721F0A9C0E92FE061BE2EEB
S11313C0B4FE0DC0FB2DF460BF2E09C034FE0AC06C
S11313D0292F2660B22E06C028E030E005C020E1A7
S11313E030E002C020E132E0F801B7FE07C06081BE
S11313F07181828193810C5F1F4F06C0608171816E
S113140080E090E00E5F1F4FA30124D4882E86183D
S1131410FB2DFF773F2E36FE0DC0232D2E7FA22EEF
S1131420891458F434FE0BC032FC09C0832D8E7E1F
S1131430A82E05C0B82CA32C03C0B82C01C0B92C0D
S1131440A4FE0FC0FE01E80DF11D8081803321F45C
S11314509A2D997EA92E09C0A2FE06C0B394B39416
S113146004C08A2D867809F0B394A3FC10C0A0FEB2
S113147006C0B21480F4280C922C9B180DC0B21430
S113148058F4B60180E290E090D3B394F8CFB2144C
S113149018F42B1802C0982C212CA4FE0FC0B601FE
S11314A080E390E082D3A2FE16C0A1FC03C088E7CB
S11314B090E002C088E590E0B6010CC08A2D8678E1
S11314C051F0A1FE02C08BE201C080E2A7FC8DE2D4
S11314D0B60190E06AD3891430F4B60180E390E059
S11314E064D39A94F8CF8A94F301E80DF11D8081B6
S11314F0B60190E05AD38110F6CF222009F44ECEE3
S1131500B60180E290E051D32A94F7CFF6018681A8
S1131510978102C08FEF9FEF2B960FB6F894DEBF32
S11315200FBECDBFDF91CF911F910F91FF90EF9030
S1131530DF90CF90BF90AF909F908F907F906F90EF
S11315405F904F903F902F90089520FD09C0FC01BB
S113155023FD05C022FF02C073836283518340834D
S1131560089544FD17C046FD17C0AB01BC01DA0164
S1131570FB01AA0FBB1FEE1FFF1F1094D1F74A0FE8
S11315805B1F6E1F7F1FCB01BA01660F771F881F79
S1131590991F09C033E001C034E0660F771F881F2C
S11315A0991F3150D1F7620F711D811D911D08954E
S11315B00F931F93CF93DF938C01C801B8D2EC0132
S11315C097FD06C08BD2892BC1F7B801CE0129D370
S11315D0CE01DF91CF911F910F9108958F929F9229
S11315E0AF92BF92EF92FF920F931F93CF93DF932B
S11315F08C01D62F7A01B22E9AD29C0133272B323A
S1131600310531F02D32310559F48B2D8068B82E17
S1131610D15011F480E061C0C80189D297FDFACF9E
S1131620CB2DCD7F2B2D2073F9F48033E9F4AA243C
S1131630AA94AD0E09F43EC0C80179D297FD3AC010
S11316409C012F7D33272835310541F4C264D250E3
S113165089F1C8016CD297FF07C02CC0B6FE02C046
S1131660C26001C0C261DA2D812C912C540120ED9D
S1131670280F283078F0C4FF03C0B801D2D217C0B5
S11316802A3040F0C6FFF9CF2F7D3FEE320F3630BF
S1131690A0F727504C2FC501B40163DF4B015C0157
S11316A0C260D15051F0C80142D297FFE0CFC1FDD2
S11316B004C0B0CF812C912C5401C7FF08C0B09452
S11316C0A09490948094811C911CA11CB11C2C2F7B
S11316D0B501A401C70139DF81E0DF91CF911F91EA
S11316E00F91FF90EF90BF90AF909F908F900895CF
S11316F05F926F927F928F929F92AF92BF92CF929E
S1131700DF92EF92FF920F931F93CF93DF93CDB7A6
S1131710DEB7A0970FB6F894DEBF0FBECDBF5C0155
S1131720962E7A01F9018E010F5F1F4F680180E246
S1131730D8011D928A95E9F7D50113968C9080E023
S113174090E0612C712C30E061E070E083FC259125
S113175083FE21918F01522E211103C080E090E07D
S113176090C02E3511F4009751F1432F50E04817E3
S113177059073CF42D3559F12D3219F4772009F12C
S113178003C0772009F468C0452D469546954695D3
S1131790D601A40FB11D452D47708B0102C0000F67
S11317A0111F4A95E2F7A8015C91452B4C936514EF
S11317B059F0561410F45394E7CF5A94E5CF31E01E
S11317C004C07724739401C0712C0196BFCF772095
S11317D019F08E8180628E83311103C08824839432
S11317E017C0F6019E012F5D3F4F80818095819344
S11317F02E173F07D1F7F2CFE114F10429F0D701F6
S11318008C93F70131967F019A94812C9920E9F009
S1131810C5018DD197FD17C0FC01FF2723E0F59585
S1131820E7952A95E1F7EC0DFD1D208130E0AC0130
S11318304770552702C0359527954A95E2F720FD54
S1131840DBCFB501EED1811089CFE114F10411F0A1
S1131850D7011C92C80115C0422F4695469546955E
S1131860D601A40FB11D422F47708B0102C0000F97
S1131870111F4A95E2F7A8015C91452B4C93622E07
S1131880A4CFA0960FB6F894DEBF0FBECDBFDF91F4
S1131890CF911F910F91FF90EF90DF90CF90BF9069
S11318A0AF909F908F907F906F905F9008955F921C
S11318B06F927F928F929F92AF92BF92CF92DF925C
S11318C0EF92FF920F931F93CF93DF936C01EB0181
S11318D05A01FC0117821682512CF601E380FE01A5
S11318E0E3FC8591E3FE8191182FEF01882309F42D
S11318F0E0C090E0F3D0892B19F0C60159DEEDCF9A
S1131900153241F4FE01E3FC1591E3FE1191EF0160
S1131910153271F4C6010BD197FDC9C0412F50E0B7
S11319209C01332724173507C1F2B6017AD1C1C00F
S11319301A3239F4E3FC1591E3FE1191EF0101E051
S113194001C000E0F12C20ED210F2A3078F4026070
S11319506F2D70E080E090E040E203DEF62EFE01A1
S1131960E3FC1591E3FE1191EF01EDCF01FF03C0FC
S1131970F11003C09EC0FF24FA94183619F01C36E7
S113198051F010C0FE01E3FC1591E3FE1191EF014B
S1131990183641F408600460FE01E3FC1591E3FE8F
S11319A01191EF01112309F484C0612F70E084EEDA
S11319B090E09CD0892B09F47CC000FD07C0F501A0
S11319C080809180C50102965C0102C0812C912C1B
S11319D01E3649F4F6014681578160E070E0202FFD
S11319E0C401B3DD7ACF1336A1F401FD02C0FF2494
S11319F0F394C6019CD097FD5AC08114910429F038
S1131A00F4018083C40101964C01FA94F110F1CFE2
S1131A104AC01B3551F49E01A4016F2DC60168DE36
S1131A20EC01892B09F03FC039C0C601C1DD97FD27
S1131A303EC01F3649F128F4143621F1193639F124
S1131A4025C0133771F01537E9F020C081149104D3
S1131A5029F0F4016082C40101964C01FA94FF203C
S1131A6059F0C60164D03C0197FD06C037D0892BDC
S1131A7069F3B601C301D5D081149104A1F0F40136
S1131A80108211C0006203C0006101C00064202FF5
S1131A90A4016F2DC601A2DD811105C0F601838169
S1131AA0807329F406C000FD18CF539416CF552037
S1131AB019F0852D90E002C08FEF9FEFDF91CF9159
S1131AC01F910F91FF90EF90DF90CF90BF90AF9058
S1131AD09F908F907F906F905F900895911118C19F
S1131AE0803219F089508550D0F70895FC01059093
S1131AF0061621F00020D9F7C00108953197CF01CF
S1131B000895FC010590615070400110D8F780954C
S1131B1090958E0F9F1F0895FC01615070400190B5
S1131B200110D8F7809590958E0F9F1F0895CF933D
S1131B30DF93EC012B8120FF33C026FF0AC02F7BEB
S1131B402B838E819F8101969F838E838A8190E06F
S1131B5029C022FF0FC0E881F9818081082E000C82
S1131B60990B009719F420622B831AC03196F983DC
S1131B70E8830EC0EA85FB85199597FF09C02B8180
S1131B80019611F080E201C080E1822B8B8308C0B2
S1131B902E813F812F5F3F4F3F832E83992702C0C1
S1131BA08FEF9FEFDF91CF9108950F931F93CF9302
S1131BB0DF93FB01238121FD03C08FEF9FEF2CC036
S1131BC022FF16C04681578124813581421753076D
S1131BD044F4A081B1819D012F5F3F4F3183208365
S1131BE08C93268137812F5F3F4F3783268314C020
S1131BF08B01EC01FB010084F185E02D1995892B03
S1131C00E1F6D80116968D919C9117970196179637
S1131C109C938E931697CE01DF91CF911F910F91D4
S1131C200895FB01238120FF12C026FD10C08F3FC1
S1131C303FEF930761F082832F7D20642383268105
S1131C4037812150310937832683992708958FEFEF
S1131C509FEF0895FA01AA27283051F1203181F12C
S1131C60E8946F936E7F6E5F7F4F8F4F9F4FAF4FA0
S1131C70B1E03ED0B4E03CD0670F781F891F9A1FB3
S1131C80A11D680F791F8A1F911DA11D6A0F711D67
S1131C90811D911DA11D20D009F468943F912AE073
S1131CA0269F11243019305D3193DEF6CF0108955B
S1131CB0462F4770405D4193B3E00FD0C9F7F6CF8C
S1131CC0462F4F70405D4A3318F0495D31FD405254
S1131CD0419302D0A9F7EACFB4E0A69597958795EA
S1131CE077956795BA95C9F70097610571050895C9
S1131CF09B01AC010A2E0694579547953795279575
S1131D00BA95C9F7620F731F841F951FA01D08950C
S10D1D10992788270895F894FFCF5F
S1131D1A000000020000000021080000000000FF8B
S1131D2AFFFF636F6E6E656374FFFFFF004C4344ED
S1131D3A20726573706F6E736520746F6F206C6F99
S1131D4A6E670A0D00636F6D6F6B2000636F6E6EB2
S1131D5A656374FFFFFF0077686D692D77726920E8
S1131D6A0025732C256C642C256C640046696E640A
S1131D7A696E67204C43440A0D00466F756E6420F1
S1131D8A4C43440A0D0057616974696E6720666F93
S1131D9A72204E657874696F6E20456469746F7237
S1131DAA20746F20636F6E6E6563740A0D00486554
S1131DBA6C6C6F0D0A00A001400308001000CF00EC
S1131DCAA001100022006700CF001900330033007D
S1051DDA67009C
S9030000FC
