:1000000071C000008FC000008DC000008BC00000D8
:1000100089C0000087C0000085C0000083C00000C8
:1000200081C000007FC000007DC000007BC00000D8
:1000300079C0000077C0000075C0000073C00000E8
:1000400071C0000072C000006DC000006BC00000F5
:1000500069C0000067C0000065C0000063C0000008
:1000600061C000001CC6000043C600005BC0000069
:1000700059C0000057C0000055C0000053C0000028
:1000800051C000004FC000004DC000004BC0000038
:10009000BDC60000E4C6000045C0000043C000002B
:1000A00041C000003FC000003DC000003BC0000058
:1000B00039C0000037C0000035C0000033C0000068
:1000C00031C000002FC000002DC0000017C7000085
:1000D0003EC7000027C00000C8C70000EFC70000EF
:1000E00021C0000011241FBECFEFD1E2DEBFCDBF83
:1000F00000E00CBF13E0A0E0B2E0E8E8F7E100E0C8
:100100000BBF02C007900D92A032B107D9F724E0CF
:10011000A0E2B3E001C01D92A83BB207E1F787D48B
:100120000C94C20B6DCF48C508951F920F920FB665
:100130000F9211242F933F934F935F936F937F936D
:100140008F939F93AF9380912003909121038058C8
:10015000914C909321038093200390938900809188
:100160002003809388002091220330912303409143
:1001700024035091250360912603709127038091F9
:10018000280390912903A1E00E94DF082093220315
:100190003093230340932403509325036093260355
:1001A000709327038093280390932903AF919F9125
:1001B0008F917F916F915F914F913F912F910F9010
:1001C0000FBE0F901F9018956F927F928F929F9203
:1001D000AF92BF92CF92DF92EF92FF920F931F9355
:1001E000CF93DF93CDB7DEB760970FB6F894DEBF3D
:1001F0000FBECDBFF894F0912203E09123037091DC
:1002000024036091250350912603409127033091E8
:10021000280320912903F987EA877B876C875D870C
:100220004E873F87288B789469847A84BB85AC8518
:10023000FD85EE850F8518894C01282F392D40E06A
:1002400050E060E070E080E090E0A62CB72CCB2E70
:10025000DA2EEF2EFE2EAAD729833A834B835C83B6
:100260006D837E838F839887F894709122036091C9
:1002700023035091240340912503309126032091BC
:100280002703909128038091290379876A875B87E8
:100290004C873D872E879F87888B789429853A8560
:1002A0004B855C856D857E858F859889A980BA8010
:1002B000CB80DC80ED80FE800F8118858CD7A0F28A
:1002C00060960FB6F894DEBF0FBECDBFDF91CF9121
:1002D0001F910F91FF90EF90DF90CF90BF90AF9064
:1002E0009F908F907F906F9008959C01E0ECF0E0DC
:1002F000908195FFFDCF0FB6F8940F92E0ECF0E0FF
:10030000908195FFFDCFA1ECB0E01C92F901EE0FBA
:10031000FF1FEE0FFF1FEC5FFC4F81818093C50034
:1003200080818093C40088E98C930F900FBE08955C
:100330009C01E0EDF0E0908195FFFDCF0FB6F894C1
:100340000F92E0EDF0E0908195FFFDCFA1EDB0E0E0
:100350001C92F901EE0FFF1FEE0FFF1FEC5FFC4F29
:1003600081818093D50080818093D40088E98C932B
:100370000F900FBE08958F929F92AF92BF92CF922F
:10038000DF92EF92FF920F931F93CF93DF93CDB73E
:10039000DEB7C659D1090FB6F894DEBF0FBECDBF88
:1003A0008FE0EEE0F2E0DE01119601900D928A9569
:1003B000E1F787E0E5E3F2E0DE01509601900D926F
:1003C0008A95E1F780E5EAE2F3E0DF011D928A9584
:1003D000E9F7FE01779680E8DF011D928A95E9F73B
:1003E000A12CB12C4E01BFE08B0E911CC501A0DFEA
:1003F00082E090E0E9DEFE0131966F0100E010E05E
:10040000D6018D916D01F5D50F2EF7E1EF2EF12C70
:10041000F02DEC0EFD1EE00EF11E09C00038110596
:1004200030F40F5F1F4FCCD5F70181937F01C1D509
:100430008111F4CFC814D90419F70F2EFAEFCF2E7B
:10044000D12CF02D13C00038110530F40F5F1F4F71
:10045000B7D5D7018D937D01ACD58111F4CF81E063
:1004600090E0B2DEB1E0CB1AD10851F00F2EF7E1E7
:10047000EF2EF12CF02DEC0EFD1EE00EF11EECCF58
:10048000101611060CF060C06E01E7E1CE0ED11C13
:10049000E12CF12C42E050E0BE01605F7F4FC601CD
:1004A000A3D6892B09F046C0E016F1060CF042C035
:1004B000F601C70121912F3FC1F520812F3FA9F5FA
:1004C0009C012E5F3F4F41814F3F79F52E193F0927
:1004D0002035310550F08DE192E09F938F9392D6B5
:1004E0000F900F908FEF9FEF3CC003968E199F09DE
:1004F000181619068CF4E7E1F0E0EC0FFD1FEE0D85
:10050000FF1DAAE2B3E09C01265D3C4F41914D9353
:10051000A217B307D9F702C080E090E0FC01E65DC6
:10052000FC4F10828A2D9B2D1CC0019680179107CD
:100530000CF4C0CFFFEFEF1AFF0A8FEFC81AD80AEA
:100540000E151F0509F0A6CF9FEFA91AB90AACE155
:10055000AA16B10409F04ACF80E880932A038FEFEE
:100560009FEFCA56DF4F0FB6F894DEBF0FBECDBF68
:10057000DF91CF911F910F91FF90EF90DF90CF907F
:10058000BF90AF909F908F9008956F927F928F92BF
:100590009F92AF92BF92CF92DF92EF92FF920F9312
:1005A0001F93CF93DF93CDB7DEB72B970FB6F89499
:1005B000DEBF0FBECDBF5C016B018BE0ECE3F2E070
:1005C000DE01119601900D928A95E1F71616170635
:1005D0000CF048C0F501C501860F971F1192E8176E
:1005E000F907E1F73FC0EC14FD0434F01C141D04BE
:1005F000E4F0E12CF12C25C0B4D3F501EE0DFF1D84
:100600008083E1E0F0E0EC0FFD1FE80DF91D908123
:10061000891313C08FEF881A980A8AE0881691040C
:10062000D9F08FEFE81AF80A0CC0F5011192E01723
:10063000F107E1F7E12CF12C04C0812C912CE12C85
:10064000F12C88D38111CFCF81E090E0BDDD81E036
:10065000681A710821F0F5CF80E090E011C08FEFAB
:100660009FEF0EC00F2EF8E56F2EFBE17F2EF02DD1
:10067000812C912CE12CF12C85010C0D1D1DE1CF5D
:100680002B960FB6F894DEBF0FBECDBFDF91CF9192
:100690001F910F91FF90EF90DF90CF90BF90AF90A0
:1006A0009F908F907F906F900895EF92FF920F939D
:1006B0001F93CF93DF93CDB7DEB7C458D1090FB6E0
:1006C000F894DEBF0FBECDBF8AE1CF57DF4F8883DE
:1006D000C158D0408FEFCE57DF4F8883C258D040EB
:1006E000CD57DF4F8883C358D040CC57DF4F888326
:1006F000C458D04060E870E0CE01019646DF9923EF
:10070000ECF08E010F571F4F780184E0E80EF11CCA
:10071000F80181918F013ED3E016F106C9F780916F
:100720002A03882371F00BE213E034D3F80181919E
:100730008F018111FACF80E090E005C08FEF9FEF2D
:1007400002C080E090E0CC57DF4F0FB6F894DEBFD8
:100750000FBECDBFDF91CF911F910F91FF90EF9012
:1007600008957F928F929F92AF92BF92CF92DF9225
:10077000EF92FF920F931F93CF93DF93CDB7DEB726
:100780002E970FB6F894DEBF0FBECDBF19821A8226
:100790001B821C828AE0E7E4F2E0DE0115960190FC
:1007A0000D928A95E1F70F2EF8E88F2EF3E19F2E38
:1007B000F02D00E0C12CD12CA12CB12CE12CF12C7E
:1007C0007724739467C0CDD2182F13D401111BC0A6
:1007D000E5E0F0E0EC0FFD1FEE0DFF1D808118132A
:1007E00057C08FEFE81AF80A89E0E816F10409F01B
:1007F00051C019821A821B821C82072DC12CD12C58
:10080000A12CB12C47C01F3F61F48FEFA81AB80A82
:1008100083E0A816B10451F469817A818B819C81AF
:100820005AC01C3219F48FEFC81AD80A81E0C816D2
:10083000D10481F580ED810F8A3060F589819A813C
:10084000AB81BC81880F991FAA1FBB1FAC01BD01E2
:10085000440F551F661F771F440F551F661F771FD4
:10086000840F951FA61FB71F89839A83AB83BC8310
:1008700089819A81AB81BC81810F911DA11DB11D20
:10088000C097A109B10989839A83AB83BC8302C055
:10089000E12CF12C5FD2811196CF02C091D37AD294
:1008A00088D38111FBCF81E090E08EDC81E0881A53
:1008B000910881F789819A81AB81BC81181619064C
:1008C0001A061B062CF469817A818B819C8103C0F6
:1008D0006FEF7FEFCB012E960FB6F894DEBF0FBE01
:1008E000CDBFDF91CF911F910F91FF90EF90DF90DF
:1008F000CF90BF90AF909F908F907F900895CF92B0
:10090000DF92EF92FF92CF93DF932BDF6B017C019D
:1009100099230CF483C0FF92EF92DF926F9381E5ED
:1009200092E09F938F936ED40F900F900F900F9043
:100930000F900F9080E6C81689E0D806E104F10414
:10094000C9F1C11482ECD80681E0E806F10419F17E
:1009500080ECC81682E1D806E104F104F9F0C11474
:1009600081EED806E104F104E1F080E8C81685E2E2
:10097000D806E104F104C1F0C11486E9D806E10407
:10098000F104A9F0C1148BE4D806E104F104A9F440
:10099000C6E0D0E014C0C1E0D0E011C0C2E0D0E0B9
:1009A0000EC0C3E0D0E00BC0C4E0D0E008C0C5E09A
:1009B000D0E005C0C0E0D0E002C0C7E0D0E0CE018A
:1009C00094DCCE01B5DCC0E0C5D1882321F0C9D1CB
:1009D00010D3C0E005C0CF5F03C0CF5FC2D109D341
:1009E000B9D18111FACFE5D28823A9F0E9D2D2D1C9
:1009F000CC2351F38091220380912303809124031F
:100A000080912503809126038091270380912803FC
:100A100080912903D9CFC111EDCFD6CF8FEF9FEFB2
:100A2000DF91CF91FF90EF90DF90CF900895CF931B
:100A3000DF93CDB7DEB72A970FB6F894DEBF0FBEAF
:100A4000CDBF88E0ECEFF2E0DE01139601900D924D
:100A50008A95E1F768DB78941A82198289819A81F4
:100A6000079798F4E981FA8183E090E08C0F9D1F4D
:100A7000E80FF91F808154D389819A8101969A8366
:100A8000898389819A81079768F388248A94982CAE
:100A90000F2EF8E6EF2EF2E0FF2EF02D0F2EF6E7E8
:100AA000AF2EF2E0BF2EF02D02E812E00F2EFAEA90
:100AB0002F2EF2E03F2EF02D0F2EF5EC6F2EF2E0F0
:100AC0007F2EF02D0F2EFEED4F2EF2E05F2EF02D3B
:100AD0009A82898289819A81181619066CF0FF9290
:100AE000EF9290D348DC9A83898389819A810F9011
:100AF0000F90181619069CF7C980DA80BF92AF9242
:100B000081D39A8289820F900F9011C01F930F9307
:100B100079D3CBDD9A83898389819A810F900F9055
:100B200099232CF03F922F926DD30F900F908981D3
:100B30009A8199235CF37F926F9264D3E0DEC601C1
:100B4000D4DBC601F5DB5F924F925CD32F9A0F90F6
:100B50000F900F900F90BCCF68987098699A719819
:100B600038C1089552985A98539A5B98AAC108952B
:100B7000A1E0B1E08C918E7F8C93E2E0F1E0808186
:100B80008E7F80838C9182608C9380818D7F808327
:100B90004FC20895A4E0B1E08C918E7F8C93E5E084
:100BA000F1E080818E7F80838C9182608C93808144
:100BB0008D7F8083D8C208958FE3809365008FEE88
:100BC0008093640081B111B882B18FEF82B994B182
:100BD00014B895B185B997B117B898B188B99AB1D9
:100BE0001AB89BB18BB99DB11DB89EB18EB990B3A7
:100BF00010BA91B381BB93B3907C93BB94B39F63C2
:100C000094BBE1E0F1E090811082E2E0F1E09081BC
:100C10008083E4E0F1E090811082E5E0F1E09081F2
:100C20008083E7E0F1E090811082E8E0F1E09081DC
:100C30008083EAE0F1E090811082EBE0F1E09081C6
:100C40008083279A2F9840E060E881E690E008D002
:100C500013BE15BE0DD080DF85DF8ADF9BCF0895E0
:100C60002FB7F8941BBEFC01608340832FBF08950B
:100C7000E4E6F0E08081877F808381E080938100DB
:100C800080E89EE3909389008093880090938B0086
:100C900080938A0082E080936F0080E008951F9225
:100CA0000F920FB60F9211240BB60F928F939F9352
:100CB000EF93FF938091C600E0913104EF5FEF77EF
:100CC000E093310490913004F0E0EE5CFB4F8083C0
:100CD00080912F048F5F80932F04FF91EF919F915C
:100CE0008F910F900BBE0F900FBE0F901F90189515
:100CF0001F920F920FB60F9211240BB60F928F9383
:100D0000EF93FF9380910C04882389F0E0910D0408
:100D1000EF5FEF71E0930D04F0E0E15FFB4F808146
:100D20008093C60080910C04815080930C048091C4
:100D30000C04811105C0E1ECF0E080818F7D80839F
:100D4000FF91EF918F910F900BBE0F900FBE0F9000
:100D50001F90189590912F0481E0911101C080E0BF
:100D6000089580912F048823E1F3E0913004EF5F30
:100D7000EF77E09330040FB6F8940F9280912F0430
:100D8000815080932F040F900FBEF0E0EE5CFB4F7C
:100D90008081089520910E042F5F2F7190910C0493
:100DA0009032E1F3E22FF0E0E15FFB4F808320938C
:100DB0000E040FB6F8940F9280910C048F5F80930D
:100DC0000C040F900FBEE1ECF0E080818062808324
:100DD0000895E4E6F0E080818D7F80831092C50065
:100DE00087E68093C4001092C00088E98093C10018
:100DF000109230041092310410922F0410920D04BE
:100E000010920E0410920C0480E008951F920F922D
:100E10000FB60F9211240BB60F928F939F93EF93FF
:100E2000FF938091CE00E0910304EF5FE770E093C1
:100E3000030490910204F0E0EC5FFB4F808380910B
:100E400001048F5F80930104FF91EF919F918F9137
:100E50000F900BBE0F900FBE0F901F9018951F9212
:100E60000F920FB60F9211240BB60F928F93EF9340
:100E7000FF938091F603882389F0E091F703EF5FF9
:100E8000E770E093F703F0E0E750FC4F8081809338
:100E9000CE008091F60381508093F6038091F60393
:100EA000811105C0E9ECF0E080818F7D8083FF91A6
:100EB000EF918F910F900BBE0F900FBE0F901F9070
:100EC0001895E5E6F0E080818E7F80831092CD005A
:100ED00087E68093CC001092C80088E98093C9000F
:100EE0001092020410920304109201041092F7036E
:100EF0001092F8031092F60380E008951F920F926B
:100F00000FB60F9211240BB60F928F939F93EF930E
:100F1000FF938091D600E091B503EF5FEF73E0930C
:100F2000B5039091B403F0E0EA54FC4F80838091C4
:100F3000B3038F5F8093B303FF91EF919F918F91E4
:100F40000F900BBE0F900FBE0F901F9018951F9221
:100F50000F920FB60F9211240BB60F928F93EF934F
:100F6000FF9380919003882389F0E0919103EF5FD4
:100F7000EF71E0939103F0E0ED56FC4F8081809398
:100F8000D6008091900381508093900380919003CC
:100F9000811105C0E1EDF0E080818F7D8083FF91BC
:100FA000EF918F910F900BBE0F900FBE0F901F907F
:100FB00018959091B30381E0911101C080E00895EC
:100FC0008091B3038823E1F3E091B403EF5FEF7303
:100FD000E093B4030FB6F8940F928091B30381505D
:100FE0008093B3030F900FBEF0E0EA54FC4F808172
:100FF0000895209192032F5F2F719091900390326A
:10100000E1F3E22FF0E0ED56FC4F80832093920352
:101010000FB6F8940F92809190038F5F80939003A6
:101020000F900FBEE1EDF0E0808180628083089533
:10103000E5E6F0E080818D7F80831092D50087E621
:101040008093D4001092D00088E98093D100109250
:10105000B4031092B5031092B3031092910310924F
:1010600092031092900380E008951F920F920FB6A2
:101070000F9211240BB60F928F939F93EF93FF93D0
:1010800080913601E0918703EF5FE770E09387037B
:1010900090918603F0E0E857FC4F808380918503B0
:1010A0008F5F80938503FF91EF919F918F910F90B8
:1010B0000BBE0F900FBE0F901F9018951F920F92AE
:1010C0000FB60F9211240BB60F928F93EF93FF93ED
:1010D00080917A03882389F0E0917B03EF5FE770CA
:1010E000E0937B03F0E0E358FC4F8081809336016E
:1010F00080917A03815080937A0380917A038111E1
:1011000005C0E1E3F1E080818F7D8083FF91EF9165
:101110008F910F900BBE0F900FBE0F901F901895E0
:1011200020917C032F5F277090917A039830E1F330
:10113000E22FF0E0E358FC4F808320937C030FB64E
:10114000F8940F9280917A038F5F80937A030F90C7
:101150000FBEE1E3F1E08081806280830895E0DFEB
:1011600080E090E00895E5E6F0E080818B7F808369
:101170001092350187E6809334011092300188E99E
:101180008093310110928603109287031092850399
:1011900010927B0310927C0310927A0380E092E01D
:1011A0009093B5048093B40480E008952A0D3B1D0C
:1011B0004C1D5D1D6E1D7F1D801F911F0895002415
:1011C000A7FD00942A0F301D401D501D601D701D8D
:1011D000801D901D08952A153B054C055D056E0583
:1011E0007F05800791070895FB01DC0141505040C5
:1011F00030F08D910190801919F40020B9F7881B07
:10120000990B0895CF93DF93CDB7DEB7AE014A5F58
:101210005F4FFA0161917191AF018091B404909197
:10122000B50403D0DF91CF9108952F923F924F9252
:101230005F926F927F928F929F92AF92BF92CF9266
:10124000DF92EF92FF920F931F93CF93DF93CDB76F
:10125000DEB72B970FB6F894DEBF0FBECDBF6C0183
:101260007B018A01FC0117821682838181FFBFC145
:10127000CE0101963C01F6019381F70193FD859122
:1012800093FF81917F01882309F4ADC1853239F440
:1012900093FD859193FF81917F01853221F4B60101
:1012A00090E0D6D1E8CF912C212C312CFFE1F31521
:1012B000D8F08B3279F038F4803279F08332A1F4AF
:1012C000232D20611DC08D3261F0803369F4232D00
:1012D000216016C0832D8260382EE32DE4603E2EFF
:1012E0002AC0F32DF8601DC037FC2DC020ED280F5B
:1012F0002A3040F08E32B9F436FC75C1232D2064BB
:10130000322E19C036FE06C08AE0989E200D1124A8
:10131000922E11C0EAE02E9E200D1124222EF32DD4
:10132000F0623F2E08C08C3621F4832D8068382E61
:1013300002C0883641F4F70193FD859193FF8191B6
:101340007F018111B3CF982F9F7D9554933028F45E
:101350000C5F1F4F9FE399830DC0833631F08337B5
:1013600071F0833509F055C020C0F8018081898370
:101370000E5F1F4F88248394912C530112C02801C3
:10138000F2E04F0E511CF801A080B18036FE03C080
:10139000692D70E002C06FEF7FEFC5014ED14C01A7
:1013A0008201F32DFF773F2E15C0280122E0420E67
:1013B000511CF801A080B18036FE03C0692D70E099
:1013C00002C06FEF7FEFC5012DD14C01F32DF06806
:1013D0003F2E820133FC19C0822D90E088169906B9
:1013E000A0F4B60180E290E033D12A94F5CFF50164
:1013F00037FC859137FE81915F01B60190E028D1DD
:1014000021102A9421E0821A91088114910479F71D
:10141000E1C0843611F0893639F5F80137FE07C08E
:1014200060817181828193810C5F1F4F08C0608150
:101430007181072E000C880B990B0E5F1F4FF32D47
:10144000FF763F2E97FF09C0909580957095619526
:101450007F4F8F4F9F4FF0683F2E2AE030E0A3016F
:1014600033D1882E861844C0853731F4232D2F7E42
:10147000B22E2AE030E025C0932D997FB92E8F3609
:10148000C1F018F4883579F0AEC0803719F088378C
:1014900021F0A9C0E92FE061BE2EB4FE0DC0FB2DE6
:1014A000F460BF2E09C034FE0AC0292F2660B22E78
:1014B00006C028E030E005C020E130E002C020E1B5
:1014C00032E0F801B7FE07C06081718182819381AB
:1014D0000C5F1F4F06C06081718180E090E00E5F5D
:1014E0001F4FA301F1D0882E8618FB2DFF773F2ECA
:1014F00036FE0DC0232D2E7FA22E891458F434FE03
:101500000BC032FC09C0832D8E7EA82E05C0B82CDE
:10151000A32C03C0B82C01C0B92CA4FE0FC0FE013F
:10152000E80DF11D8081803321F49A2D997EA92E3A
:1015300009C0A2FE06C0B394B39404C08A2D867875
:1015400009F0B394A3FC10C0A0FE06C0B21480F44E
:10155000280C922C9B180DC0B21458F4B60180E2EE
:1015600090E076D0B394F8CFB21418F42B1802C0E0
:10157000982C212CA4FE0FC0B60180E390E068D027
:10158000A2FE16C0A1FC03C088E790E002C088E577
:1015900090E0B6010CC08A2D867851F0A1FE02C001
:1015A0008BE201C080E2A7FC8DE2B60190E050D052
:1015B000891430F4B60180E390E04AD09A94F8CFD1
:1015C0008A94F301E80DF11D8081B60190E040D0CE
:1015D0008110F6CF222009F44ECEB60180E290E0D1
:1015E00037D02A94F7CFF6018681978102C08FEF1A
:1015F0009FEF2B960FB6F894DEBF0FBECDBFDF91E5
:10160000CF911F910F91FF90EF90DF90CF90BF90FF
:10161000AF909F908F907F906F905F904F903F9092
:101620002F900895FC010590615070400110D8F78B
:10163000809590958E0F9F1F0895FC01615070401A
:1016400001900110D8F7809590958E0F9F1F0895F7
:101650000F931F93CF93DF93FB01238121FD03C0E1
:101660008FEF9FEF2CC022FF16C046815781248147
:1016700035814217530744F4A081B1819D012F5F4A
:101680003F4F318320838C93268137812F5F3F4FDB
:101690003783268314C08B01EC01FB010084F185A4
:1016A000E02D1995892BE1F6D80116968D919C9124
:1016B0001797019617969C938E931697CE01DF91FC
:1016C000CF911F910F910895FA01AA27283051F167
:1016D000203181F1E8946F936E7F6E5F7F4F8F4F63
:1016E0009F4FAF4FB1E03ED0B4E03CD0670F781FC2
:1016F000891F9A1FA11D680F791F8A1F911DA11DA7
:101700006A0F711D811D911DA11D20D009F46894DF
:101710003F912AE0269F11243019305D3193DEF687
:10172000CF010895462F4770405D4193B3E00FD03D
:10173000C9F7F6CF462F4F70405D4A3318F0495D28
:1017400031FD4052419302D0A9F7EACFB4E0A6950B
:101750009795879577956795BA95C9F7009761052D
:10176000710508959B01AC010A2E06945795479583
:1017700037952795BA95C9F7620F731F841F951F78
:08178000A01D0895F894FFCFAD
:101788000000000200000000AF080000000000FF99
:10179800FFFF636F6E6E656374FFFFFF004C434489
:1017A80020726573706F6E736520746F6F206C6F35
:1017B8006E670A0D00636F6D6F6B2000636F6E6E4E
:1017C800656374FFFFFF0077686D692D7772692084
:1017D800005374617274696E672055706C6F616430
:1017E8004020256C640A0D0046696E64696E6720A6
:1017F8004C43440A0D00466F756E64204C43440AFE
:101808000D0057616974696E6720666F72204E65B6
:101818007874696F6E20456469746F7220746F20E4
:10182800636F6E6E6563740A0D004E657874696F38
:101838006E20456469746F7220636F6E6E656374A1
:1018480065640A0D0057616974696E6720666F7276
:101858002075706C6F616420636D640A0D005570AB
:101868006C6F61642074696D6564206F75742C20D9
:1018780066696E69736865643F0A0D0048656C6C3B
:101888006F0D0A00A001400308001000CF00A0015E
:10189800100022006700CF001900330033006700F2
:00000001FF
